:100000000C94BB010C94CD010C94CD010C94F9011E
:100010000C9481210C94CD010C94CD010C94CD0154
:100020000C94CD010C94CD010C94CD010C94C4160C
:100030000C94CD010C94CD010C94CD010C94CD0108
:100040000C9478160C94CD010C94BE1A0C94401BA1
:100050000C94CD010C94CD010C94CD010C94CD01E8
:100060000C94CD010C94CD01A531AB31AE31B13141
:10007000B631BE31C631613261326132D331D631EF
:10008000DF31E831613261326132613261326132D5
:10009000F431FE310A32123215321E3227322D323D
:1000A0006132613236323F324A32C8045910591037
:1000B000D204DD04E804F3045910F70459100505CF
:1000C00059100F05190523055910591059103305FA
:1000D00040054D05F41AF61A2F1B2F1B2F1B2F1B43
:1000E0002F1B2F1B2F1B2F1B2F1B2F1BFC1AFE1A26
:1000F000001B021B041B061B081B0A1B2F1B0E1BCD
:10010000101B121B141B161B181B2F1B1A1B084A33
:10011000D73B3BCE016E84BCBFFDC12F3D6C74311B
:100120009ABD56833DDA3D00C77F11BED9E4BB4C72
:100130003E916BAAAABE000000803F05A84CCDB23C
:10014000D44EB93836A9020C50B9918688083CA61D
:10015000AAAA2ABE000000803F000D0A4772626C06
:1001600020312E3167205B27242720666F7220689C
:10017000656C705D0D0A00244E005B4F50543A00D0
:100180005B5645523A312E31672E3230313831319B
:1001900031323A005B5052423A005B544C4F3A00C5
:1001A0005B4739323A003330003238005B47002079
:1001B0004700204D002053002046002054003338D3
:1001C0002E005B47433A47005B484C503A242420BA
:1001D000242320244720244920244E2024783D76BF
:1001E000616C20244E783D6C696E6520244A3D6C1C
:1001F000696E652024534C50202443202458202429
:1002000048207E2021203F206374726C2D785D0D84
:100210000A00536C656570696E6700526573746F90
:1002200072696E67207370696E646C6500526573E5
:10023000746F72696E672064656661756C747300B3
:1002400050676D20456E6400436865636B204C69A0
:100250006D69747300436865636B20446F6F72004F
:1002600044697361626C656400456E61626C6564CB
:100270000043617574696F6E3A20556E6C6F636BE5
:10028000656400272448277C2724582720746F2082
:10029000756E6C6F636B00526573657420746F20AC
:1002A000636F6E74696E7565005B4D53473A00412C
:1002B0004C41524D3A007C413A007C4F763A007CEA
:1002C00057434F3A007C506E3A007C46533A007CCC
:1002D00042663A007C57506F733A007C4D506F7302
:1002E0003A00536C65657000446F6F723A00436862
:1002F00065636B00416C61726D00486F6D65004A0B
:100300006F6700486F6C643A0052756E0049646C08
:1003100065000D0A006572726F723A000000C842F3
:100320000000C84200007A4300803B4600803B4604
:100330000000FA4300BADB4A00BADB4A00A00C47CF
:1003400000809DC300004DC3000020C103000019C0
:10035000018FC2F53C6F12033B00007A440000009D
:100360000032030000964400001645FA0000000029
:10037000406F6B0D0A0011241FBECFEFD8E0DEBF27
:10038000CDBF27E0A0E0B1E001C01D92A136B207C9
:10039000E1F70E943E2D0C94203D0C940000EBE60A
:1003A000F0E08081897E8083E8E6F0E080818E7FC6
:1003B0008083089584B1897E84B985B1866185B9C9
:1003C0008091700183FF0BC080916B0086618093E8
:1003D0006B008091680081608093680008950C94A0
:1003E000CF01F999FECF92BD81BD81E08FBB80B571
:1003F00008951F920F920FB60F9211242F933F93DF
:100400004F935F936F937F938F939F93AF93BF931C
:10041000EF93FF9380911A01813049F08091090791
:10042000811105C00E943A2081E00E94CD20FF91F9
:10043000EF91BF91AF919F918F917F916F915F915C
:100440004F913F912F910F900FBE0F901F901895D5
:1004500093B196718091700186FD02C086E1982764
:10046000992349F091FB882780F992FD8260907171
:1004700019F08460089580E0089561E071E088E9F2
:1004800091E00C94E6209F92AF92BF92CF92DF92C0
:10049000EF92FF920F931F93CF93DF935B018A013B
:1004A0007C01E40EF51EEC01912C6B01C81AD90AEF
:1004B000C6018C0F9D1FCE15DF0589F00E94F1014A
:1004C000911008C0292D990C330B232F221F2227AE
:1004D000221F01C021E0982E920E8993E9CFC50119
:1004E000800F911F0E94F10121E030E0981611F079
:1004F00020E030E0C901DF91CF911F910F91FF9073
:10050000EF90DF90CF90BF90AF909F900895F894B8
:10051000F999FECF92BD81BD81E08FBB80B5862762
:10052000482F082E000C550B262F30E024233523AE
:10053000232B39F06F3F19F060BD84E006C084E1E1
:1005400004C0882321F060BD84E28FBBF99A7894BF
:1005500008959F92AF92BF92CF92DF92EF92FF9257
:100560000F931F93CF93DF935C018A017B01E40E0D
:10057000F51EEB01912C6C01C61AD70ACE018C0D29
:100580009D1DCE15DF0589F0911008C0292D990C0D
:10059000330B232F221F2227221F01C021E0699144
:1005A000922E960E0E948702E9CF692DC501800F19
:1005B000911FDF91CF911F910F91FF90EF90DF90EE
:1005C000CF90BF90AF909F900C94870290911B01A9
:1005D000911107C086FF02C0439A01C04398109250
:1005E000250108952F923F924F925F926F927F92D2
:1005F0008F929F92AF92BF92CF92DF92EF92FF9233
:100600000F931F93CF93DF93CDB7DEB7CA54D109B1
:100610000FB6F894DEBF0FBECDBF8AE3E0ECF1E089
:10062000DF011D928A95E9F78BE0E0E8F1E0A1ECAB
:10063000B1E001900D928A95E1F780911107843223
:1006400011F00C947A1081E08093C1011092C201E4
:1006500083E08A8FB1E0BBA3212C312C1CA61BA602
:1006600010E01B8E1F8EEE24E394F12CEAE0AE2EF8
:10067000B12CF1E68F2EF3E09F2E8A8DE82FF0E06B
:10068000EF5EF84FD080DD2009F437C29FEB9D0D5F
:100690009A3110F00C9449108F5F8A8FBE016A5E08
:1006A0007F4FCE014A960E94B429882311F40C94FE
:1006B0004B104E885F88688C798CC301B2010E9410
:1006C0006C3C0E94AA39062F70E080E090E00E9406
:1006D000DB399B01AC01C301B2010E94313820E03B
:1006E00030E048EC52E40E94893B0E94F63B0E94B5
:1006F000AA39CB01E7E4DE1629F0FDE4DF1609F4A0
:10070000EAC035C1083209F4C6C020F5043168F4E6
:10071000013108F08AC0043009F452C008F464C002
:100720000A3009F445C00C9459100C3109F440C04A
:1007300050F4063110F00C94591025E1201B209341
:10074000C30126E0ADC00E3199F1063209F44CC068
:100750000C9459100D3309F498C0A8F4053381F1B5
:1007600040F40B3209F47AC0013309F477C00C94D9
:1007700059100C3310F00C9459106AEC600F609310
:10078000C70129E08DC00C3538F40A3508F053C094
:10079000003581F10C9459100C3551F00F3510F0E3
:1007A0000C9459102EE5201B2093C20125E078C03F
:1007B000009731F42F8D21110C944D1031E03F8FB3
:1007C0000093C001202F2D7F2C3119F00C3509F03A
:1007D00064C0009721F00A9711F00C945910600F33
:1007E0006093C00120E061C04F8D41110C944D1009
:1007F000A2E0AF8F0093C101063209F050C08431EE
:10080000910559F08E31910541F08832910529F01A
:100810008233910511F00C945910B5010E949E3C51
:1008200066576093C10121E040C06FEE600F609396
:10083000C50122E035C0892B31F466EA600F609370
:10084000C40123E032C06A30710511F00C945910D4
:100850000A3511F40C94591024E027C0BF8DB11152
:100860000C944D10013331F41092C60128E0E3E0FE
:10087000EF8F1BC00A9711F00C945910F1E0F09320
:10088000C60128E033E03F8F10C0892B11F00C9493
:1008900059102AE00AC027E003C020E001C021E08F
:1008A000892B19F087E10C948110C70102C0880FD1
:1008B000991F2A95E2F72BA53CA528233923232B42
:1008C00019F085E10C948110ABA5BCA5A82BB92B20
:1008D000BCA7ABA7D2CE892B29F7063018F403307A
:1008E00058F016C0083010F40C9459100A30F0F08B
:1008F0000E3159F00C945910002319F0013011F108
:1009000004C0B3E0B093C8011DC00093C8011AC071
:10091000043021F0053031F080E101C080E28093A5
:10092000CA0102C01092CA018CE00DC0093031F03A
:100930008091C90180648093C90102C01092C901ED
:100940008DE001C08BE0F70102C0EE0FFF1F8A951A
:10095000E2F72BA53CA52E233F23232B09F0B1CF93
:100960002BA53CA52E2B3F2B3CA72BA786CE8D2D50
:10097000DD0C990BAA0BBB0BFC01E654F109E53128
:10098000F10510F00C945910EB5AFF4F0C94F33C06
:100990004092CC015092CD016092CE017092CF0175
:1009A00080E087C04092D0015092D1016092D20184
:1009B0007092D301116081E07CC04092D4015092CA
:1009C000D5016092D6017092D701126082E071C0A9
:1009D0004092D8015092D9016092DA017092DB0105
:1009E000146083E066C00093DC0184E062C0C30150
:1009F000B2010E94A3396093DD017093DE01809300
:100A0000DF019093E00185E054C04092E1015092F3
:100A1000E2016092E3017092E40186E04AC04092F4
:100A2000E5015092E6016092E7017092E80187E0EB
:100A300040C04092E9015092EA016092EB0170924D
:100A4000EC0188E036C020E030E04FE753E4C3011A
:100A5000B2010E94493B181614F40C944F100093F5
:100A6000ED0189E026C04092EE015092EF016092C4
:100A7000F0017092F1013B8D31603B8F8AE019C02B
:100A80004092F2015092F3016092F4017092F501EC
:100A90004B8D42604B8F8BE00CC04092F601509220
:100AA000F7016092F8017092F9018B8D84608B8F51
:100AB0008CE06701082E02C0CC0CDD1C0A94E2F722
:100AC000960122213321232B11F00C945110D401D3
:100AD00002C0B595A7958A95E2F7A0FF0BC020E06C
:100AE00030E0A901C301B2010E94273987FF02C08B
:100AF0000C9453102C283D28C0CDBB8DBB2329F06E
:100B0000EF8DE11102C0F2E0FF8F25FE0FC0809152
:100B1000DD019091DE01A091DF01B091E00181380B
:100B20009649A849B10514F00C9455103BA1332304
:100B300029F020FC02C00C945F1018C08091C20103
:100B4000813071F44F8D4230E1F58091C1018035E3
:100B5000C1F18823B1F120FC02C00C945F1031C0B8
:100B60008091810181112DC020FE1BC08091C301A5
:100B7000813039F523E333E34BEC51E46091CC0150
:100B80007091CD018091CE019091CF010E94893B5F
:100B90006093CC017093CD018093CE019093CF01EF
:100BA00010C080918F0190919001A0919101B0911E
:100BB00092018093CC019093CD01A093CE01B0938C
:100BC000CF0130FC10C080918B0190918C01A091DD
:100BD0008D01B0918E018093E9019093EA01A09379
:100BE000EB01B093EC018091C001843039F426FC14
:100BF00003C08CE10C948110E89426F88091C50123
:100C0000882369F0813029F48FAF1DAE92E09BAF4D
:100C10000BC01FAEA2E0ADAFB1E0BBAF05C0E2E0DC
:100C2000EFAFF1E0FDAF1BAE8091C301813021F049
:100C30002F8D2330C9F52FC060ECC62E61E0D62E73
:100C4000E12CF12C3B8DA32EB12CC5010E2C02C042
:100C5000959587950A94E2F780FF12C023E333E36A
:100C60004BEC51E4D6019E966D917D918D919C91B6
:100C7000D1970E94893BF60166A777A780AB91AB1D
:100C8000FFEFEF1AFF0A24E0C20ED11C33E0E31697
:100C9000F104D9F6CDCF8091C601813029F44B8D76
:100CA000443011F00C9457108CE0E4EAF1E0DE01DE
:100CB000119601900D928A95E1F78BA59CA591FD67
:100CC00008C00091C0010A30C9F00C3509F4B3C066
:100CD0001EC18091C701873018F08DE10C948110FE
:100CE00090918601891769F3BE016F5F7F4F0E9463
:100CF000401A882311F40C946D10E3CF9B8D911151
:100D000003C08AE10C948110C10180759927892B59
:100D100009F46FCF6091E1017091E2018091E301EC
:100D20009091E4010E946C3C0E94AA396730A8F6B9
:100D30008091DC01843141F0823011F00C94591023
:100D400027FE02C00C945910AFEA2A22662319F03C
:100D5000615069A703C0B091C701B9A760ED71E008
:100D600089A50E94401A882311F40C946D100091FB
:100D7000DC014090BC015090BD016090BE017090BC
:100D8000BF0140ECE42E41E0F42E50E8A52E51E0E6
:100D9000B52EC12CD12CEB8D8E2E912CC4010C2C98
:100DA00002C0959587950A94E2F780FF35C004311B
:100DB00051F5D501D0962D913D914D915C91D397F0
:100DC00058966D917D918D919C915B970E943138E1
:100DD000F70126A537A540A951A90E943138D701AE
:100DE00050966D937D938D939C935397B2E0CB1265
:100DF00013C0A30192010E943138F701608B718BFF
:100E0000828B938B09C0F70186A597A5A0A9B1A9EC
:100E1000808B918BA28BB38BFFEFCF1ADF0A24E07C
:100E2000E20EF11C34E0A30EB11C43E0C416D10461
:100E300009F0B4CF3FC18B8D882309F462CF409075
:100E4000BC015090BD016090BE017090BF0120E8D0
:100E5000822E21E0922EDE0111967D0130ECC32E10
:100E600031E0D32EA12CB12CE82FF0E0F8A7EFA3AE
:100E70008FA198A50A2C02C0959587950A94E2F750
:100E800080FF29C0D7012D913D914D915C91F401D6
:100E9000608D718D828D938D0E943138D6019E9622
:100EA0002D913D914D915C91D1970E943138F60181
:100EB00066A777A780AB91ABF2E0AF1216C0A30193
:100EC00092010E943138D6019E966D937D938D9349
:100ED0009C93D1970AC0F40180A991A9A2A9B3A9B2
:100EE000F60186A797A7A0ABB1ABFFEFAF1ABF0A79
:100EF00024E0820E911C34E0E30EF11C44E0C40EA9
:100F0000D11C83E0A816B10409F0B2CFD2C09F8DE6
:100F1000933069F40E3109F494C0053309F4C3C069
:100F20000C3109F0C6C060ED71E086E08DC0AB8D7C
:100F3000AA2381F3B091C401BFA34090BC0150909B
:100F4000BD016090BE017090BF0180E8A82E81E0D5
:100F5000B82E90ECE92E91E0F92EFE0131964F016A
:100F6000C12CD12C2A2F30E03AA729A789A59AA510
:100F70000C2C02C0959587950A94E2F780FD0BC072
:100F8000F501808D918DA28DB38DF70186A797A76E
:100F9000A0ABB1AB44C0053309F441C0FFA1F111CE
:100FA0002BC0D501D0962D913D914D915C91D39759
:100FB000F40160817181828193810E943238D7016E
:100FC0009E962D913D914D915C91D1970E94323822
:100FD000F70166A777A780AB91ABF2E0CF121FC0F5
:100FE000A30192010E943238D7019E966D937D93A2
:100FF0008D939C93D19713C0F501208D318D428D37
:10100000538DD7019E966D917D918D919C91D19735
:101010000E943238F70166A777A780AB91ABFFEF4C
:10102000CF1ADF0A24E0A20EB11C34E0E30EF11C5B
:1010300044E0840E911C83E0C816D10409F096CFD9
:1010400069CF60ED71E087E00E94401A882311F4B7
:101050000C946D109B8D911103C019A61F8E2AC090
:10106000A0E8B1E0E0ECF1E080E090E04B8D242FCF
:1010700030E0A901082E02C0559547950A94E2F781
:1010800040FD0AC058964D915D916D917C915B97A2
:10109000408B518B628B738B019614963496833000
:1010A000910539F706C08091C101823010F00C948F
:1010B0005B1019A68091C1018FA3803529F49B8D07
:1010C00091110C945D107AC2AF8DA23009F076C2F6
:1010D000BFA1B11104C0EB8DE11170C22AC020E0A4
:1010E00030E0A9016091CC017091CD018091CE01D9
:1010F0009091CF010E942739882309F4E0C7FFA10E
:10110000FC3809F445C240F4F230A9F0F330B1F0F4
:10111000F13009F053C20AC02FA12E3809F438C2A9
:1011200008F433C22F3809F430C248C23B8D311164
:1011300045C21F8E43C24BA144604BA38B8D8823B5
:1011400009F4DFCDBBADAB2FB0E0B8ABAFA7FDADC1
:10115000EF2FF0E0FCABEBAB81E090E07C010BAC5F
:1011600002C0EE0CFF1C0A94E2F70DAC02C0880F1F
:10117000991F0A94E2F7E82AF92A2B8D822F90E032
:101180008E219F21892B09F49CC7FD01EE0FFF1FC3
:10119000EE0FFF1FE054FE4FAA0FBB1FAA0FBB1F8D
:1011A000A856BE4F2D913D914D915C9166A577A5B6
:1011B00080A991A90E9431382B013C01EBA9FCA91F
:1011C000EE0FFF1FEE0FFF1FE054FE4FABA9BCA9AF
:1011D000AA0FBB1FAA0FBB1FA856BE4F2D913D9152
:1011E0004D915C9166A577A580A991A90E9431389F
:1011F0004B015C01610130E8C322DD2427FEF5C00C
:10120000E89427F84CE050E06EEE71E088E991E058
:101210000E94133D892B11F481E273C78091C301B1
:101220008130B1F423E333E34BEC51E46091E50109
:101230007091E6018091E7019091E8010E94893B5D
:101240006093E5017093E6018093E7019093E801D4
:101250008091E5019091E601A091E701B091E8014C
:101260008FAB98AFA9AFBAAFA3019201C301B2018E
:101270000E94893B27966CAF7DAF8EAF9FAF2797BB
:10128000A5019401C501B4010E94893B2B966CAF66
:101290007DAF8EAF9FAF2B9720E030E040E850E469
:1012A0006FA978AD89AD9AAD0E94893B2FA938AD61
:1012B00049AD5AAD0E94893B27962CAD3DAD4EAD50
:1012C0005FAD27970E9431382B962CAD3DAD4EADCA
:1012D0005FAD2B970E9431386B017C0120E030E03C
:1012E000A9010E94273987FDEEC6C701B6010E94F9
:1012F000283C6B017C012B962CAD3DAD4EAD5FAD16
:101300002B9727966CAD7DAD8EAD9FAD27970E9434
:1013100032380E94283C9B01AC01C701B6019058AD
:101320000E9431396B017C019FA1933021F4F7FABF
:10133000F094F7F8F09420E030E0A9016FA978ADBF
:1013400089AD9AAD0E94273987FF11C0F7FAF09452
:10135000F7F8F0948FA998ADA9ADBAADB0588093C5
:10136000E5019093E601A093E701B093E8010FA592
:1013700018A9000F111F000F111F00531E4FA701C6
:101380009601C501B4010E94893B9B01AC01C301D8
:10139000B2010E94313820E030E040E05FE30E947B
:1013A000893BD8016D937D938D939C9313970BA9E3
:1013B0001CA9000F111F000F111F00531E4FA70182
:1013C0009601C301B2010E94893BA50194010E94CC
:1013D000323820E030E040E05FE30E94893BF801D2
:1013E0006083718382839383E9C0212F30E038AF1B
:1013F0002FABE222F322EF2809F467C631EF232254
:101400008091C301813009F47BC0EFA5F8A9EE0FEC
:10141000FF1FEE0FFF1FE053FE4FC080D180E28020
:10142000F380A7019601C301B2010E9431382B015C
:101430003C01EBA9FCA9EE0FFF1FEE0FFF1FE053CD
:10144000FE4F80819181A281B3818FA798ABA9AB18
:10145000BAAB9C01AD01C501B4010E9431384B010A
:101460005C01A3019201C301B2010E94893B2B01DF
:101470003C01A5019401C501B4010E94893B9B0177
:10148000AC01C301B2010E9432380E94283C4B01DA
:101490005C01A7019601C701B6010E94893B6B015F
:1014A0007C012FA538A949A95AA9CA01B9010E94EE
:1014B000893B9B01AC01C701B6010E9432380E94F2
:1014C000283C6B017C016093E5017093E6018093F9
:1014D000E7019093E8019B01AC01C501B4010E94B2
:1014E00031384B015C01E894B7F82AE037ED43EA64
:1014F0005BE3C501B4010E94493B18164CF15EC084
:1015000000EC11E08FA998AD0C2C02C09595879541
:101510000A94E2F780FF12C023E333E34BEC51E47B
:10152000D80150966D917D918D919C9153970E9419
:10153000893BF801608B718B828B938BFFEFCF1A05
:10154000DF0A0C5F1F4F23E0C216D104D9F65DCF2E
:1015500020E030E040E05FE3C501B4010E94493B78
:1015600018160CF459CE2FE632E143E85AE3C701CE
:10157000B6010E94893B9B01AC01C501B4010E94E8
:10158000493B18160CF448CE19C03BA130613BA36F
:101590008FA18E58823018F44BA148604BA38B8DDD
:1015A000882309F4AECB4CE050E06EEE71E088E9A0
:1015B00091E00E94133D892B09F42ECE2BA12170BE
:1015C0009BA190FF03C0C1018E7D03C0C1018E7D30
:1015D0009C7FAF8DA111937E892B09F078C58E0178
:1015E000035F1F4F89E0F80111928A95E9F72223E2
:1015F00009F44BC08BA59CA5867B892B09F069C596
:101600008091C001853311F0811163C580918B01F8
:1016100090918C01A0918D01B0918E01898B9A8B54
:10162000AB8BBC8B9091890180918801892B409173
:10163000CC015091CD016091CE017091CF014D87C9
:101640005E876F87788B84608D8B8091700185FFBA
:1016500006C08EEE91E00E94C53781113CC5B801ED
:101660008EEE91E00E94623780911A01811137C598
:101670000E948C1E892B09F432C580E280931A01E6
:101680000E94BB210E940C192AC580917001F09024
:10169000890181FF26C08FA18150833018F0FBA102
:1016A000F064FBA32B8D222339F03F8D323021F4DF
:1016B0004BA140684BA315C080E1F81212C0809185
:1016C000800181509BA19074833030F4992349F0BC
:1016D0009BA190629BA305C0911103C0ABA1A06226
:1016E000ABA38091DD019091DE01A091DF01B0916B
:1016F000E0018093940190939501A0939601B0939B
:1017000097018091C20180938101882311F088E0C4
:101710008D8B8091CC019091CD01A091CE01B091A3
:10172000CF0180938F0190939001A0939101B0938A
:1017300092018D879E87AF87B88B8090E90190904A
:10174000EA01A090EB01B090EC01A5019401609139
:101750008B0170918C0180918D0190918E010E947E
:101760002739BBA1B074EB2E811103C0EBA1E5FFBB
:1017700020C0FF2071F0FBA1F7FD0BC0EE2021F08F
:1017800040E050E0BA0102C0B501A4018F2D0E94D3
:10179000A5328091E9019091EA01A091EB01B0910D
:1017A000EC0180938B0190938C01A0938D01B093F9
:1017B0008E01E1100CC080918B0190918C01A09161
:1017C0008D01B0918E01898B9A8BAB8BBC8B8091F4
:1017D000ED01809393018091CA019091890198173E
:1017E00051F049895A896B897C890E94A532809180
:1017F000CA01809389019D8980918901892B8D8BF4
:10180000F090C901809188018F1569F080911A01CB
:10181000823029F00E949C1E8F2D0E94E60280914A
:10182000C901809388019D8980918801892B8D8BC6
:101830008091C001843099F4C090E101D090E20120
:10184000E090E301F090E40180911A01823039F0D8
:101850000E949C1E40E0C701B6010E940B208091AF
:10186000C501809384018091C301809382012F8DF3
:10187000233071F58091C60180938501811108C0E4
:101880001092F6011092F7011092F8011092F901EE
:10189000C090F601D090F701E090F801F090F901C6
:1018A000A70196016091BC017091BD018091BE01BC
:1018B0009091BF010E942739882351F0C092BC014A
:1018C000D092BD01E092BE01F092BF010E942C387F
:1018D0008091C70190918601981769F080938601E5
:1018E0008CE0FE013196A4EAB1E001900D928A9558
:1018F000E1F70E942C388091C4018093830180918C
:10190000C0018632F1F138F48C3109F18E31F9F0F1
:101910008A3069F04FC08C35D1F1863609F441C068
:10192000883209F047C068E971E087E02DC060EDBA
:1019300071E089A50E942C1A8091860139A538137F
:1019400039C08CE0E0EDF1E0A4EAB1E025C08D897A
:1019500081608D8B4F8D442329F0B8018EEE91E08C
:101960000E946237B80180ED91E00E9462378CE0FE
:10197000E0EDF1E0A8E9B1E001900D928A95E1F780
:1019800019C068E971E086E00E942C1A13C08CE04F
:10199000EEEEF1E0A0EBB1E001900D928A95E1F757
:1019A00007C08CE0E0EBF1E0DF011D928A95E9F7DA
:1019B0000E942C388091C10180938001803509F408
:1019C0001AC3BF8DB23009F016C3813021F4BE01B5
:1019D000635F7F4F06C0811109C08D8981608D8B47
:1019E000B8018EEE91E00E946237FCC282508230D4
:1019F00008F093C28091E5019091E601A091E70182
:101A0000B091E8018F8F98A3A9A3BAA3ABAD94E0DE
:101A1000A99F70011124F701E856FE4FF8A7EFA324
:101A2000970120533E4F3AA729A7D9014D905D90C9
:101A30006D907C902081318142815381C301B2013C
:101A40000E9432386BA77CA78DA79EA7EDADB4E0AE
:101A5000EB9F80011124980128563E4F3CAF2BAFDD
:101A6000C80180539E4F9EAF8DAFDC018D909D903D
:101A7000AD90BC90F9012081318142815381C50133
:101A8000B4010E9432386FA778AB89AB9AAB77FA72
:101A9000709477F87094D501C401B0588B8F9C8FE7
:101AA000AD8FBE8FF701E251FE4F2BA53CA54DA592
:101AB0005EA560817181828193810E9431386B01C2
:101AC0007C01F801E251FE4F2FA538A949A95AA976
:101AD00060817181828193810E9431384B015C0168
:101AE000A7019601C301B2010E94893B6BAB7CAB9D
:101AF0008DAB9EABA50194016B8D7C8D8D8D9E8DE4
:101B00000E94893B9B01AC016BA97CA98DA99EA970
:101B10000E9432386BAB7CAB8DAB9EABA5019401C0
:101B2000C301B2010E94893B4B015C01A7019601F0
:101B30006B8D7C8D8D8D9E8D0E94893B9B01AC01B0
:101B4000C501B4010E9431382BA93CA94DA95EA959
:101B50000E94B1386B017C019BA192FF13C02DEB59
:101B600037E346E055EBC701B6010E94493B87FDCC
:101B70001DC02BED3FE049EC50E4C701B6010E94C7
:101B8000313812C02DEB37E346E055E3C701B6010B
:101B90000E942739181654F02BED3FE049EC50E431
:101BA000C701B6010E9432386B017C01809064014C
:101BB00090906501A0906601B09067012F8D38A1CB
:101BC00049A15AA1CA01B9010E943238A501940164
:101BD0000E943138A50194010E94893B0E94283C53
:101BE0004B015C0120E030E040E05FE3C701B6015B
:101BF0000E94893B2F8D38A149A15AA10E94893B9F
:101C00009F77A50194010E9431390E94163A0E94E3
:101C1000AA397CAB6BABDB01AB2B09F4D8CE1D89A9
:101C20004B01A12CB12C13FF12C0C501B4010E94BD
:101C3000D9399B01AC016D857E858F8598890E947D
:101C4000893B6D877E878F87988B177F1D8BC5019A
:101C5000B4010E94D9394B015C019B01AC01C70161
:101C6000B6010E9431396BA37CA38DA39EA3EFAD77
:101C7000B4E0EB9FC00111248C0108561E4FFC01FB
:101C8000E251FE4FD8012D913D914D915C916081C3
:101C90007181828193810E943138A50194010E9453
:101CA000313927966CAF7DAF8EAF9FAF27972BA1B1
:101CB0003CA14DA15EA1CA01B9010E94893B9B01D3
:101CC000AC0160E070E080E090E40E9431386B018C
:101CD0007C012BEA3AEA4AE25EE36BA17CA18DA18A
:101CE0009EA10E94893B4B015C0120E030E040E86E
:101CF00050E4C701B6010E9432389B01AC01C50116
:101D0000B4010E94893B6FAB78AF89AF9AAF20E0F6
:101D100030E040E05FE3C701B6010E94893B2396B3
:101D20006CAF7DAF8EAF9FAF23971F8E222423947D
:101D3000312CEBA9FCA9E215F30509F448CEBF8DBF
:101D4000BC3008F044C02B8D3C8D4D8D5E8D2396AC
:101D50006CAD7DAD8EAD9FAD23970E94893B6B012D
:101D60007C01A30192016FA978AD89AD9AAD0E9463
:101D7000893BA70196010E9432387B016C01A301C7
:101D8000920123966CAD7DAD8EAD9FAD23970E94E1
:101D9000893B4B015C012B8D3C8D4D8D5E8D6FA978
:101DA00078AD89AD9AAD0E94893B9B01AC01C5011C
:101DB000B4010E9431382B013C01EF8DEF5FEF8FB2
:101DC000470156018B8E9C8EAD8EBE8E65C0B101D3
:101DD00080E090E00E94D9392BA13CA14DA15EA1E9
:101DE0000E94893B6B017C010E942C396B8F7C8F98
:101DF0008D8F9E8FC701B6010E941A3C4B015C017A
:101E0000A9A5BAA5CD90DD90ED90FC90F7FAF094DD
:101E1000F7F8F094ADADBEAD8D919D910D90BC9154
:101E2000A02D8F8F98A3A9A3BAA3A70196016B8DAC
:101E30007C8D8D8D9E8D0E94893B2B013C012F8DC9
:101E400038A149A15AA1C501B4010E94893B9B0157
:101E5000AC01C301B2010E9432382B013C01A70141
:101E60009601C501B4010E94893B6B017C012F8D55
:101E700038A149A15AA16B8D7C8D8D8D9E8D0E94BC
:101E8000893B9B01AC01C701B6010E9431386B8FC1
:101E90007C8F8D8F9E8F1F8EA30192016BA57CA5D9
:101EA0008DA59EA50E943238EFA1F8A560837183AD
:101EB000828393832B8D3C8D4D8D5E8D6FA578A98C
:101EC00089A99AA90E943238ABADBCAD6D937D93C0
:101ED0008D939C93139727962CAD3DAD4EAD5FAD82
:101EE0002797F80160817181828193810E94323845
:101EF000D8016D937D938D939C931397BE01635F7F
:101F00007F4F88E991E00E94623780911B01811127
:101F100069C0BFEF2B1A3B0A0CCF8D8984608D8B73
:101F200080911A01823009F45DC00E949C1E80914C
:101F30001B01811160C0FBA1F071FF2E10921F01E7
:101F40002BA123FB882780F90E94AC1C86B18072EC
:101F500090910001891749F084E00E94CD200E94F1
:101F6000331580E00E94AC1C46C0B8018EEE91E0B3
:101F70000E94623781E08093190182E00E94DD2097
:101F80000E94331580911B01811135C080911A0187
:101F90008111F6CF80911901813081F4FF2051F039
:101FA0008CE0E1E0F1E0ADE0B1E001900D928A95C6
:101FB000E1F707C085E00E94CD2003C081E0809357
:101FC0001F011092190180E00E94AC1C0E94331581
:101FD0000E9481290E94AD1E0E94AE1D80911F01AA
:101FE00081118CC08CE0EEEEF1E0A8E9B1E0019047
:101FF0000D928A95E1F78091C8018093870188232B
:1020000009F47FC00E949C1E8091870190911A0163
:10201000833041F49230D1F188E00E94DD200E94AB
:10202000331534C081E080938001109284011092B6
:102030008301109281011092860110928901109201
:10204000880184E6809321018093220180932301FB
:10205000923091F064EA71E080E00E94401A882397
:10206000E1F10E942C3840E050E0BA0180E00E948B
:10207000C11980E00E94E60289EA92E00E949F1D59
:1020800080E492E00E949F1D0E94EC101092870154
:102090002FC081E036C082E034C088E132C086E2E1
:1020A00030C089E12EC084E02CC08BE12AC085E2DB
:1020B00028C084E126C08EE124C08FE122C086E1E1
:1020C00020C080E21EC082E21CC083E21AC084E20B
:1020D00018C080E116C08FE014C087E012C08CE009
:1020E000EEEEF1E0A8E9B1E001900D928A95E1F7FA
:1020F00080E007C01A8E1BA20C942C030E943D02A4
:102100007ACFC65BDF4F0FB6F894DEBF0FBECDBFF0
:10211000DF91CF911F910F91FF90EF90DF90CF90C3
:10212000BF90AF909F908F907F906F905F904F90F7
:102130003F902F9008950F931F93CF938C01C0E091
:10214000F80161917191819191918F010E946A1DB5
:10215000C23019F08CE20E946A1BCF5FC33081F756
:10216000CF911F910F91089582E193E00C949F1DF0
:10217000CF92DF92EF92FF92CF93DF93D82F6A0135
:102180007B01C22F84E20E946A1B8D2F0E94791D61
:102190008DE30E946A1B4C2FC701B6010E94BE1C32
:1021A000DF91CF91FF90EF90DF90CF900C94B4101F
:1021B000CF93DF93D82FC62F84E20E946A1B8D2F06
:1021C0000E94791D8DE30E946A1B8C2F0E94791D4D
:1021D000DF91CF910C94B4108DE50E946A1B0C9492
:1021E000B4103F924F925F926F927F928F929F9224
:1021F000AF92BF92CF92DF92EF92FF920F931F9315
:10220000CF93DF93CDB7DEB7A4970FB6F894DEBFB8
:102210000FBECDBF10910907112391F181E080938A
:102220001A018FEA92E00E949F1D812F0E94791D62
:102230000E94B41085EF91E0019739F0EFE9FFE0DB
:102240003197F1F700C00000F7CF1150123030F095
:102250008FB7F894109209078FBF12C089EA92E0F5
:102260000E949F1D87E992E00E949F1D0E94EC1032
:1022700080E10E94D3208091080784FFFCCFE8CF43
:1022800010910807112309F4BBC214FF04C081E0B8
:1022900080931B01D0C310FFBFC18CE0E1E0F1E0EF
:1022A000DE01599601900D928A95E1F7BE01675EB5
:1022B0007F4FCE010D960E94E6208CE30E946A1BA0
:1022C00080911A018830E1F058F4813099F1A8F03A
:1022D000823099F1843009F043C08AEF92E03EC029
:1022E000803229F118F4803171F03AC0803441F124
:1022F0008038B1F582EE92E031C08DE093E02EC0DF
:1023000089E093E02BC080911C0187FD10C083E021
:1023100093E00E949F1D80911C0180FF06C080E316
:102320001AC082FF17C085FFFACF81E314C08FEF78
:1023300092E014C084EF92E011C08EEE92E00EC0E5
:1023400088EE92E00E949F1D80911C0183FFE9CFDF
:1023500083E301C082E30E946A1B02C00E949F1DAA
:1023600080915F01F82FF170BF2E80FF07C0809130
:102370002601882319F08BED92E053C04090BC01F8
:102380005090BD016090BE017090BF0154EA852E4F
:1023900051E0952E9E012F5F3F4F7901CE010D96A2
:1023A0006C0100E0F40161917191819191914F0173
:1023B00020853185428553850E943238F70160833C
:1023C000718382839383023061F4A30192010E949E
:1023D0003238F7016083718382839383BB2019F0C5
:1023E000CACFB11011C0F7012081318142815381E0
:1023F000F60160817181828193810E943138F601FA
:1024000060837183828393830F5FF4E0EF0EF11C8E
:1024100024E0C20ED11C033029F6B110ACCF84EDFC
:1024200092E00E949F1DCE010D960E949B1080910C
:102430005F0181FF1FC08FEC92E00E949F1D909171
:10244000510680913003981710F0815F01C08150D0
:10245000891B0E94791D8CE20E946A1B8091970261
:1024600090919802981710F0805801C08150891BF4
:102470000E94791D8AEC92E00E949F1D80911A01B2
:102480008C7749F06091EF067091F0068091F1062B
:102490009091F20603C060E070E0CB010E945B1DEA
:1024A0008CE20E946A1B6091270170912801809143
:1024B000290190912A0140E00E94BE1C0E9428023E
:1024C000F82E0E947221082F86B1982F9072809169
:1024D0000001E92EE8268F2D802B8E2959F185ECFD
:1024E00092E00E949F1DEE2019F080E50E946A1B79
:1024F000FF2079F0F0FE03C088E50E946A1BF1FE20
:1025000003C089E50E946A1BF2FE03C08AE50E94AF
:102510006A1B002379F000FF03C082E50E946A1B5A
:1025200001FF03C088E40E946A1B02FF03C083E529
:102530000E946A1B80912601882321F0815080939C
:10254000260118C080911A018C7711F08DE101C02D
:1025500089E08093260180912501811103C081E0EB
:10256000809325018FEB92E00E949F1DCE01019682
:102570000E949B1000912501002321F0015000933F
:10258000250142C080911A018C7711F083E101C0CE
:1025900089E0809325018AEB92E00E949F1D809143
:1025A00021010E94791D8CE20E946A1B8091220108
:1025B0000E94791D8CE20E946A1B809123010E9477
:1025C000791D8091B00087FF05C02D9B02C002E0FD
:1025D00001C001E0439B03C040E4F42E03C000238C
:1025E00099F0F12C86EB92E00E949F1D002339F0B8
:1025F000013011F483E501C083E40E946A1BFF20CF
:1026000019F086E40E946A1B8EE30E946A1B0E94F6
:10261000B41081E00E94D320812F887E09F467C026
:1026200080911A01982F937009F050C08872A1F020
:1026300080911C01807C81F40E945D2982E080935E
:102640001E0180911A01803239F417FDF2C1809188
:102650001C01806880931C0180911A01811103C0C4
:1026600091E090931C0116FF07C085FD05C0909175
:102670001C01906490931C0113FF05C0807E19F427
:1026800080E180931A0115FF21C089EA92E00E943F
:102690009F1D85E592E00E949F1D0E94EC10809195
:1026A0001C0187FD0EC090911A01903439F483FF0C
:1026B000BCC1837E826080931C01B7C1903809F051
:1026C000B4C180911C01806280931C0117FF0CC073
:1026D00080911A01813029F480911C0185608093DA
:1026E0001C0180E880931A0188EE0E94D32011FF1C
:1026F00044C0812F8876F1F580911A01803471F4FD
:1027000080911C0185FD0AC084FF03C010921A014C
:1027100005C082FF03C0886080931C0180911A016C
:10272000882381F084FF26C090911C0190FF22C075
:10273000803141F480912401882321F088608093C6
:10274000240118C010921E010E948C1E892B71F06A
:1027500080911C0186FD0AC010921C0188E08093C4
:102760001A010E94BB210E940C1904C010921C0186
:1027700010921A0182E00E94D32012FF41C0809182
:102780001A01807D90911C018823D9F080911D0150
:10279000811117C097FD15C00E945D2980913003FB
:1027A00080932F030E94BE1E80911E0181FF05C0F1
:1027B00090911C01916090931C01897F80931E0170
:1027C0001CC097FF0AC010921E010E94AD1E0E94FD
:1027D00081290E943D020E94AE1D80911C0185FF4F
:1027E00008C08F77816080931C0180E480931A0178
:1027F00004C010921C0110921A0184E00E94D320A0
:1028000090910A07992309F4ABC08FB7F8941092FE
:102810000A078FBF4091210190FD02C0842F01C0A3
:1028200084E691FD865F92FD8A5093FD8F5F94FD53
:102830008150893C08F088EC8A3008F48AE03091B5
:10284000220195FD02C0232F01C024E696FD22E35C
:1028500097FD29E1481303C0231709F481C0809331
:102860002101209322011092250110913003309014
:10287000510689E9D82E96E7E92E26E9F22E0EE7D1
:1028800032E3432E131509F457C0812E912C489C36
:10289000C001499C900D1124FC01EF5CFC4F5F01CD
:1028A000CF010E94191E562E672E782EC92E2D2D6F
:1028B0003E2D4F2D502F0E94493B18164CF42D2DC4
:1028C0003E2D4F2D502F6D2D7E2D8F2D902F08C01A
:1028D000252D362D472D5C2D652D762D872D9C2D94
:1028E0000E94893BF501668B778B808F918F489C86
:1028F000C001499C900D11249C012F5C3C4F790133
:10290000F90182A093A0A4A0B5A0A50194016689B5
:102910007789808D918D0E94493B18162CF4F70120
:10292000868A978AA08EB18E1F5F103109F410E05D
:10293000D52C73010C2DA6CF8D2D9E2DAF2DB02F34
:102940008093120290931302A0931402B093150285
:102950000E945D298091300380932F030E94BE1E48
:1029600010910B07112309F459C08FB7F8941092F6
:102970000B078FBF9091230110FD02C0892F01C06A
:1029800084E611FD865F12FD8A5013FD8F5F14FDF2
:102990008150893C08F088EC8A3008F48AE0981766
:1029A000D1F08093230180911A0181110DC04091D3
:1029B0008B0150918C0160918D0170918E018091FD
:1029C00089010E94C11905C080911E018860809311
:1029D0001E011092250180911A0115FF0DC0803152
:1029E00059F490912401911102C092E003C090FF2C
:1029F00003C0946090932401107C81F0882311F02F
:102A0000887361F01091880116FF02C01F7B01C01E
:102A10001064812F0E94E6021093880180911A01B0
:102A20008C7F49F00E94BB2106C080E480931A018C
:102A300048CE80E218CEA4960FB6F894DEBF0FBE43
:102A4000CDBFDF91CF911F910F91FF90EF90DF905D
:102A5000CF90BF90AF909F908F907F906F905F903E
:102A60004F903F900895CF92DF92EF92FF921F9385
:102A7000CF93DF930E94F11080911C01882309F409
:102A8000FEC00E948C1E009771F4C0918901809154
:102A90008801C82BC0908B01D0908C01E0908D01F3
:102AA000F0908E010EC0FC01C189C073439B02C02F
:102AB00020E401C020E0C22BFC01C6A4D7A4E0A8FA
:102AC000F1A88091700181FF03C080E20E94BB20C9
:102AD000DC2FD07311E0C07C80911C01882309F4A5
:102AE000CEC090911B019111CAC080FFC5C09091CA
:102AF0001A01292F207C09F474C082FD12C01092A3
:102B0000240140E050E0BA0180E00E94C11980E059
:102B10000E94E60280911C018D7F846080931C01DD
:102B2000ABC09038E1F489EA92E00E949F1D82E1F7
:102B300092E00E949F1D0E94EC1040E050E0BA011C
:102B400080E00E94C11980E00E94E6020E948E1679
:102B500080911B01811193C00E94F110F9CF903434
:102B600019F48F7D80931C0180911C0183FF84C028
:102B7000909189019923C1F081FD16C08091700167
:102B800081FF06C080911E01886080931E010CC0E9
:102B9000B701A6018D2F0E94C11941E060E070E0ED
:102BA00080E890E40E940B2080918801882371F0D6
:102BB00080911C0181FD0AC08C2F0E94E60241E039
:102BC00060E070E080E89FE30E940B2080911C0190
:102BD00081FD52C0806180931C0182E00E94DD2053
:102BE0004BC0809124018823C9F181FF0DC08091E1
:102BF00089018823B1F040E050E0BA0180E00E94F2
:102C0000C1191093240138C08C70B1F180918901F1
:102C100081110AC08091240183FF03C082E00E94D9
:102C2000DD201092240128C089EA92E00E949F1DB5
:102C30008BE192E00E949F1D0E94EC108091700138
:102C400081FF06C080911E01886080931E01E2CF43
:102C5000B701A6018D2F0E94C119DCCF80911E0102
:102C600083FF0AC0B701A6018D2F0E94C119809170
:102C70001E01877F80931E010E94F1102DCFDF91EE
:102C8000CF911F91FF90EF90DF90CF9008950E9419
:102C90008C1E892B19F082E00C94DD20089580931E
:102CA000B300811104C08091B0008F7703C0809180
:102CB000B00080688093B000089580915C01682F17
:102CC00020915D01422F982F917080FD94E0822F1A
:102CD000817020FD80E261FD986041FD806462FDAD
:102CE000906142FD80689093090380930A030895E0
:102CF0001F920F920FB60F9211248F939F938BB157
:102D0000909109039C71837E892B8BB915BC9F918F
:102D10008F910F900FBE0F901F90189580916F00AC
:102D20008D7F80936F0080918100887F8160809388
:102D3000810010920B0380915E0190911A018F3FE8
:102D400039F420910907211103C0903881F402C0A1
:102D5000943069F090E0009741F0EFE9FFE031979F
:102D6000F1F700C000000197F6CF81E001C080E0DC
:102D70009091700192FF02C091E08927882311F0A1
:102D8000289A0895289808951F920F920FB60F92CF
:102D900011242F933F934F935F936F937F938F9360
:102DA0009F93AF93BF93EF93FF9380910B03811198
:102DB00022C28BB190911B03907E8F71892B8BB9AE
:102DC0008BB1837E90911A03892B8BB98091190363
:102DD00086BD82E085BD81E080930B03789480916D
:102DE0002D0390912E03892B09F0BFC080915206CC
:102DF00090917D06981709F4A4C0E09152062E2FF9
:102E000030E087E0E89FF0011124ED5AF94FF0938C
:102E10002E03E0932D038281938190938900809308
:102E20008800808191819093290380932803E48115
:102E300080912A038E1761F1E0932A0382E1E89FD3
:102E4000F0011124E258F94FF0932C03E0932B0387
:102E500084859585A685B785B695A7959795879519
:102E60008093140390931503A0931603B093170354
:102E70008093100390931103A0931203B093130354
:102E800080930C0390930D03A0930E03B0930F0354
:102E9000A0912B03B0912C0350969C915097809158
:102EA0000A03892780931B0387E0829FF001839F99
:102EB000F00D1124ED5AF94F25814D915D916D91E1
:102EC0007C911397022E04C0769567955795479588
:102ED0000A94D2F740931C0350931D0360931E0382
:102EE00070931F0314964D915D916D917C9117978E
:102EF000022E04C076956795579547950A94D2F7A8
:102F00004093200350932103609322037093230383
:102F100018968D919D910D90BC91A02D04C0B695F1
:102F2000A795979587952A95D2F780932403909338
:102F30002503A0932603B093270386810E944F1692
:102F400014C00E948E16E0912B03F0912C0381890E
:102F5000882339F01092B3008091B0008F7780936E
:102F6000B00084E00E94DD2046C1809119018130CB
:102F7000B1F486B1807290910001891781F01092AE
:102F800019018CE0E1E0F1E0ADE0B1E001900D92DB
:102F90008A95E1F780910807806480930807109272
:102FA0001A0340910C0350910D0360910E03709130
:102FB0000F0380911C0390911D03A0911E03B091FB
:102FC0001F03840F951FA61FB71F80930C039093B8
:102FD0000D03A0930E03B0930F03E0912B03F09128
:102FE0002C034485558566857785481759076A07F8
:102FF0007B0768F524E020931A0344855585668590
:103000007785841B950BA60BB70B80930C039093CD
:103010000D03A0930E03B0930F032089809101014B
:1030200090910201A0910301B091040125FF04C019
:103030000197A109B10903C00196A11DB11D80939B
:10304000010190930201A0930301B0930401409108
:10305000100350911103609112037091130380913A
:10306000200390912103A0912203B0912303840FA8
:10307000951FA61FB71F8093100390931103A09371
:103080001203B093130344855585668577854817E9
:1030900059076A077B0778F520911A032860209367
:1030A0001A034485558566857785841B950BA60B89
:1030B000B70B8093100390931103A0931203B09366
:1030C000130320898091050190910601A0910701C9
:1030D000B091080126FF04C00197A109B10903C0FE
:1030E0000196A11DB11D8093050190930601A09347
:1030F0000701B093080140911403509115036091AA
:103100001603709117038091240390912503A091D9
:103110002603B0912703840F951FA61FB71F809326
:10312000140390931503A0931603B09317034485DB
:10313000558566857785481759076A077B0778F5AF
:1031400020911A03206120931A03448555856685D2
:103150007785841B950BA60BB70B80931403909374
:103160001503A0931603B0931703208980910901DA
:1031700090910A01A0910B01B0910C0127FF04C0AE
:103180000197A109B10903C00196A11DB11D80934A
:10319000090190930A01A0930B01B0930C01809157
:1031A0001A01843039F490911A0380912001892307
:1031B00080931A038091280390912903019790939B
:1031C000290380932803892B69F410922E0310920F
:1031D0002D03809152068F5F80935206863011F442
:1031E0001092520690911A038091090389278093C7
:1031F0001A0310920B03FF91EF91BF91AF919F9132
:103200008F917F916F915F914F913F912F910F908F
:103210000FBE0F901F9018958091700182FF02C021
:10322000289A01C028988091090380931A038091FD
:103230005B01880F845081958093190380916F0002
:10324000826080936F0008954F925F926F927F9299
:103250008F929F92AF92BF92CF92DF92EF92FF92A6
:103260006B017C0180906C0190906D01A0906E01CB
:10327000B0906F01409068015090690160906A01C0
:1032800070906B01A3019201C501B4010E94493BFA
:1032900087FF19C06091230170E080E090E00E94F8
:1032A000DB392AE037ED43E25CE30E94893BA7016A
:1032B00096010E94893B6B017C01A30192010E944F
:1032C000493B87FD0AC04092270150922801609235
:1032D000290170922A018FEF47C0A5019401C7010F
:1032E000B6010E9427391816E4F020E030E0A90169
:1032F000C701B6010E942739811109C01092270128
:10330000109228011092290110922A012DC080925A
:10331000270190922801A0922901B0922A0181E010
:1033200023C0C0922701D0922801E0922901F09297
:103330002A01A5019401C701B6010E9431382091EC
:1033400004033091050340910603509107030E9446
:10335000893B0E94163A20E030E040E85FE30E949B
:1033600032380E94AA39862FFF90EF90DF90CF90DD
:10337000BF90AF909F908F907F906F905F904F9095
:10338000089590911B01911126C081110EC01092D9
:103390002701109228011092290110922A01809190
:1033A000B0008F778093B00014C0803111F42D9855
:1033B00001C02D9A9091700191FF05C0803219F4DF
:1033C00040E050E0BA01CB01BA010E9424190E94EA
:1033D0004F16109225010895CF93DF93239AC0EBE7
:1033E000D0E083E0888384E08093B100259A209127
:1033F0006C0130916D0140916E0150916F016091AF
:1034000068017091690180916A0190916B010E943D
:1034100031389B01AC0160E070E08EE793E40E94DC
:1034200031396093040370930503809306039093EE
:10343000070388818F778883DF91CF9108956AE0B1
:1034400080E090E00E94870245E550E06BE271E089
:1034500081E090E00C94A9020F931F93CF93C82FA3
:103460008B010E949C1E2DE0C29FC00111244CE0E4
:1034700050E0B8019E5FCF911F910F910C94A9026B
:103480001F93CF93DF93182FEB018DE0189FB001AE
:1034900011247E5F4CE050E0CE010E944302892B54
:1034A00059F48CE0FE0111928A95E9F7BE01812F53
:1034B0000E942C1A80E001C081E0DF91CF911F9122
:1034C0000895EF92FF920F931F93CF93DF93CDB7A1
:1034D000DEB72C970FB6F894DEBF0FBECDBF182F06
:1034E00080FF0BC085E5ECE1F3E0ABE2B1E00590D5
:1034F0000D928A95E1F70E941F1A11FF10C0CE01AC
:1035000001967C018CE0F70111928A95E9F700E0C1
:10351000B701802F0E942C1A0F5F0830C9F712FFE5
:1035200014C060E080E093E00E94870260E081E0E8
:1035300093E00E94870260E081E593E00E948702A9
:1035400060E082E593E00E94870213FF0AC060E01A
:103550008EEA93E00E94870260E08FEA93E00E9487
:1035600087022C960FB6F894DEBF0FBECDBFDF9159
:10357000CF911F910F91FF90EF9008951F920F929E
:103580000FB60F9211242F933F934F935F936F9336
:103590007F938F939F93AF93BF93EF93FF93E091AC
:1035A000C600E13271F028F4E83179F40E943A2043
:1035B00056C0EF3321F0EE3741F482E003C081E0E2
:1035C00001C088E00E94DD204AC0E7FF37C08E2F8F
:1035D00090E0FC01E458F109ED31F10508F03FC03D
:1035E000E659FF4F0C94F33C80E2ECCF80911A0136
:1035F00085FF35C080E4E6CF81E00DC082E00BC0DE
:1036000084E009C088E007C080E105C080E203C013
:1036100080E401C080E80E94C42021C081E00BC08A
:1036200082E009C084E007C088E005C080E103C0F3
:1036300080E201C080E40E94BB2011C0A0919802EA
:1036400081E08A0F813809F480E090919702891710
:1036500031F0B0E0AA5EBD4FEC9380939802FF91E9
:10366000EF91BF91AF919F918F917F916F915F91FA
:103670004F913F912F910F900FBE0F901F90189573
:103680001F920F920FB60F9211248F939F93EF9377
:10369000FF9380910303E82FF0E0E656FD4F908101
:1036A0009093C6008F5F893609F480E0809303030E
:1036B00090919902891305C08091C1008F7D8093FC
:1036C000C100FF91EF919F918F910F900FBE0F90CE
:1036D0001F901895E091990291E09E0F993631F470
:1036E00090E004C02091080724FD0FC0209103033F
:1036F0002917C1F3F0E0E656FD4F808390939902BD
:103700008091C10080628093C1000895CF93C82F3B
:1037100085E193E00E949F1D8C2F0E94791DCF911F
:103720000C94B410EF92FF920F931F93CF93DF93FB
:1037300060915B0170E080E00E94D81060915E01B2
:1037400070E081E00E94D81060915C0170E082E03E
:103750000E94D81060915D0170E083E00E94D81053
:103760006091700162FB662760F970E084E00E945E
:10377000D8106091700166FB662760F970E085E003
:103780000E94D81080917001082E000C990B692FAF
:10379000661F6627661F70E086E00E94D810609161
:1037A0005F0170E08AE00E94D81040916001509162
:1037B0006101609162017091630123E08BE00E94DE
:1037C000B81040916401509165016091660170915B
:1037D000670123E08CE00E94B81060917001617075
:1037E00070E08DE00E94D8106091700165FB662743
:1037F00060F970E084E10E94D8106091700163FB71
:10380000662760F970E085E10E94D8106091700130
:103810006295617070E086E10E94D810609171013C
:1038200070E087E10E94D8104091720150917301BD
:10383000609174017091750123E088E10E94B810D5
:1038400040917601509177016091780170917901F2
:1038500023E089E10E94B81060917A0170917B01A8
:103860008AE10E94D81040917C0150917D016091C5
:103870007E0170917F0123E08BE10E94B81040919E
:1038800068015091690160916A0170916B0120E0BB
:103890008EE10E94B81040916C0150916D016091D1
:1038A0006E0170916F0120E08FE10E94B81060916D
:1038B00070016695617070E080E20E94D810D4E6D5
:1038C000F12C0BE211E083E0E82EED0ECD2F82E02B
:1038D000F81691F0E3E0FE16E9F0F1E0FF1631F0A2
:1038E000F80140815181628173811AC0F8014485D9
:1038F00055856685778514C020E030E041E655E4C3
:10390000F801608D718D828D938D0E943139AB01EC
:10391000BC0106C0F80144A155A166A177A1705869
:1039200023E08C2F0E94B8100C5F1F4FCF5FEC126A
:10393000CECFD65FF394DC3821F6DF91CF911F9183
:103940000F91FF90EF900895811104C081E793E0FB
:103950000C949F1D0C94861B109200019091700195
:1039600097FD03C090E290930001882331F090917D
:10397000000180E289278093000108958F929F9231
:10398000AF92BF92CF92DF92EF92FF920F931F936D
:10399000CF93DF93CDB7DEB72D970FB6F894DEBF88
:1039A0000FBECDBF6B017C01042F20E030E0A901E8
:1039B0000E94273987FF07C08DE20E946A1BF7FA31
:1039C000F094F7F8F094102F123060F020E030E01F
:1039D00048EC52E4C701B6010E94893B6B017C01AF
:1039E0001250F2CF00FF0AC020E030E040E251E484
:1039F000C701B6010E94893B6B017C0120E030E0E9
:103A000040E05FE3C701B6010E9432380E94A3394B
:103A100010E03AE0832E912CA12CB12C6115710598
:103A20008105910591F0EE24E394F12CEC0EFD1E3E
:103A3000E10EF11CA50194010E94B23C605DF7010A
:103A40006083B901CA011F5FE9CF80E3101748F412
:103A5000E1E0F0E0EC0FFD1FE10FF11D80831F5F3F
:103A6000F5CF101313C0FE01E10FF11D80E3818338
:103A70001F5F0CC0101303C08EE20E946A1BFE0180
:103A8000E10FF11D80810E946A1B11501111F2CFCC
:103A90002D960FB6F894DEBF0FBECDBFDF91CF914C
:103AA0001F910F91FF90EF90DF90CF90BF90AF905C
:103AB0009F908F9008952091700120FF08C02BE8FF
:103AC00032E441E25DE30E94893B41E001C040E015
:103AD0000C94BE1C2091700120FF08C02BE832E43A
:103AE00041E25DE30E94893B44E001C043E00C9465
:103AF000BE1CCF93DF93843630F06AE00E94923C84
:103B0000C0E3C90F03C0C0E08A3030F06AE00E9411
:103B1000923CD0E3D90F01C0D0E0805D0E946A1BC7
:103B2000DD2319F08D2F0E946A1BCC2329F08C2FE6
:103B3000DF91CF910C946A1BDF91CF910895CF93C1
:103B4000DF93FC018491EF012196882321F00E94EC
:103B50006A1BFE01F7CFDF91CF9108954F925F92DC
:103B60006F927F928F929F92AF92BF92CF92DF928D
:103B7000EF92FF92CF93DF9300D000D0CDB7DEB7A6
:103B8000E1E0F1E0C080D180E280F38044805580A4
:103B90006680778080859185A285B38589839A83A5
:103BA000AB83BC83C301B2016C0D7D1D8E1D9F1DB7
:103BB00022E0822E912CA12CB12CA50194010E940F
:103BC000D43CAAEFB1E02D933D934D935C931397B2
:103BD000C701B6016419750986099709A501940101
:103BE0000E94D43C2093FE013093FF0140930002D9
:103BF0005093010289819A81AB81BC81809302023A
:103C000090930302A0930402B09305020F900F90CB
:103C10000F900F90DF91CF91FF90EF90DF90CF90BA
:103C2000BF90AF909F908F907F906F905F904F90DC
:103C30000895BF92CF92DF92EF92FF920F931F935E
:103C4000CF93DF937C01FC0102A513A5D4A5C5A5E4
:103C5000818980FF18C06091220170E080E090E0CF
:103C60000E94DB392AE037ED43E25CE30E94893BA6
:103C70009B01AC01B8018D2F9C2F0E94893B8B01C9
:103C8000D82FC92F2DC082FD17C06091210170E08F
:103C900080E090E00E94DB392AE037ED43E25CE30C
:103CA0000E94893B9B01AC01B8018D2F9C2F0E9483
:103CB000893B8B01D82FC92FF701B6A0C7A0D0A48C
:103CC000F1A42B2D3C2D4D2D5F2DB8018D2F9C2F58
:103CD0000E94493B181624F40B2D1C2DDD2DCF2DF1
:103CE00020E030E040E85FE3B8018D2F9C2F0E9478
:103CF000493B181624F000E010E0D0E8CFE3B8010B
:103D00008D2F9C2FDF91CF911F910F91FF90EF90FE
:103D1000DF90CF90BF90089580913003909151062D
:103D2000981739F022E3829FC00111248F5C9C4FC9
:103D3000089580E090E008950E9447160E94331590
:103D400080911B01811108C00E948C1E892BB1F744
:103D500080911A01883091F308958CE1EAEFF1E047
:103D6000DF011D928A95E9F71092300310925106F7
:103D700081E08093080310922F0308952F923F92C1
:103D80004F925F926F927F928F929F92AF92BF926B
:103D9000CF92DF92EF92FF920F931F93CF93DF9317
:103DA000C0915106C11101C0C0E1C150D0912F0393
:103DB000DC1709F41DC1EC2EF12C22E3C29F800117
:103DC00011240F5C1C4FF801A688B788C08CD18CD9
:103DD000628D738D848D958D9B01AC010E9432386C
:103DE000F801268D378D40A151A10E94893B4B01DE
:103DF0008C019B01AC01B501C6010E94273987FDEA
:103E000002C05401680182E38E9DF0018F9DF00D88
:103E10001124EF5CFC4FC501D601828B938BA48BE0
:103E2000B58BC11101C0C0E1C150DC1761F022E3C4
:103E30002E9DC0012F9D900D11249C012F5C3C4FA5
:103E40007901D2E333C080913003D81360C00E945F
:103E50005D295DC0AC2EB12CDA9DC001DB9D900DBB
:103E60001124FC01EF5CFC4F6F01C11101C0C0E1E6
:103E7000C150809130038C1302C00E945D29DA9DED
:103E80008001DB9D100D11240F5C1C4FF80186880A
:103E90009788A08CB18CA50194016289738984896B
:103EA00095890E942739811106C0760180912F03E0
:103EB000C813D0CF2CC0F801628D738D848D958D81
:103EC0009B01AC010E943238F801268D378D40A14C
:103ED00051A10E94893BF701228933894489558980
:103EE0000E9432382B013C019B01AC01C501B40199
:103EF0000E94493BF80118162CF4428A538A648ABE
:103F0000758AD3CF828A938AA48AB58ACECFD0917C
:103F10002F03F2E3DF9F800111240F5C1C4FC1E0EF
:103F2000CD0FC03109F4C0E02090510682E3382E55
:103F3000C21509F45BC0CC2ED12C3C9CC0013D9C29
:103F4000900D11249C012F5C3C4F7901F8014288AF
:103F5000538864887588F90182889388A488B58815
:103F6000A5019401C301B2010E94273987FF24C033
:103F7000F801628D738D848D958D9B01AC010E943B
:103F80003238F801268D378D40A151A10E94893B1E
:103F9000A30192010E9432382B013C019B01AC012C
:103FA000C501B4010E94493B181634F4F701428A56
:103FB000538A648A758ADC2F3C9CF0013D9CF00D8D
:103FC0001124EF5CFC4F26893789408D518D628921
:103FD0007389848995890E942739811101C0DC2F5A
:103FE000CF5FC03109F4C0E08701A2CFD0932F0387
:103FF000DF91CF911F910F91FF90EF90DF90CF90C5
:10400000BF90AF909F908F907F906F905F904F90F8
:104010003F902F9008951F93CF93DF93142F20E0AC
:1040200030E040EA51E40E94893B0E9410390E942E
:10403000AA39EB012097D1F080911B01811116C0A4
:10404000111103C00E94331506C00E94F110809127
:104050001C0181FD0BC02FEF80E792E021508040D2
:104060009040E1F700C000002197E4CFDF91CF91AD
:104070001F9108958091080784FD1FC080E10E9470
:10408000DD208091B0008F778093B00043989091AD
:104090001A01892F8C7221F480911E01867069F0BB
:1040A000943031F480910907811105C086E001C088
:1040B00083E00E94CD200C948E160895CF93DF9359
:1040C000C1E1D7E08991882319F00E946A1BFACFD9
:1040D000DF91CF910895CF93DF9321E5829FC001B7
:1040E0001124EC01DD5F40E550E0BE0181E197E085
:1040F0000E944302892B69F4109211070E949C1EB2
:1041000040E550E061E177E0CE010E94A90280E045
:1041100001C081E0DF91CF910895CF93DF93C0E09C
:104120008C2F0E946B2081110EC0109211078EE31C
:104130000E946A1B0E945E208AE30E946A1B87E03D
:104140000E94861B12C080911107882371F00E9483
:10415000F202D82F8EE30E946A1B0E945E208AE33F
:104160000E946A1B8D2F0E94A41CCF5FC230C1F633
:10417000DF91CF9108959FB7F89420910B07822B80
:1041800080930B079FBF08959FB7F89420910A076B
:10419000822B80930A079FBF08959FB7F89480935E
:1041A00009079FBF08952FB7F8949091080780954D
:1041B0008923809308072FBF08959FB7F894209113
:1041C0000807822B809308079FBF08954F925F9244
:1041D0006F927F928F929F92AF92BF92CF92DF9217
:1041E000EF92FF920F931F93CF938B016C017B0192
:1041F000C0E082E0882E912CA12CB12CC11122C0EC
:10420000F801408151816281738184819581A68109
:10421000B7812A013B01480E591E6A1E7B1EC3014D
:10422000B201A50194010E94D43CCA01B9010E94C7
:10423000DB3920912B0130912C0140912D015091BF
:104240002E0131C0C13001F5F80180819181A28138
:10425000B3814480558066807780BC01CD016419AC
:10426000750986099709A50194010E94D43CCA01E9
:10427000B9010E94DB3920912F013091300140912A
:104280003101509132010FC0F7016081718182814B
:1042900093810E94DB3920913301309134014091A8
:1042A0003501509136010E943139F60161937193C5
:1042B000819391936F01CF5FF4E0EF0EF11CC33057
:1042C00009F09CCFCF911F910F91FF90EF90DF905D
:1042D000CF90BF90AF909F908F907F906F905F90A6
:1042E0004F90089596B1892F877049F0892F809556
:1042F000817091FF826092FD03C08460089580E028
:1043000008951F920F920FB60F9211242F933F938F
:104310004F935F936F937F938F939F93AF93BF93CD
:10432000CF93EF93FF930E947221C82F882389F0C7
:1043300080FD0E943A20C2FF05C08091080782607C
:1043400080930807C1FF05C08091080788608093AB
:104350000807FF91EF91CF91BF91AF919F918F91FE
:104360007F916F915F914F913F912F910F900FBE71
:104370000F901F9018952F923F924F925F926F92DD
:104380007F928F929F92AF92BF92CF92DF92EF92E5
:10439000FF920F931F93CF93DF93CDB7DEB7EC97C8
:1043A0000FB6F894DEBF0FBECDBF80911E0180FD19
:1043B0006BC79091520680910C07981709F464C757
:1043C00080910F0790911007892B09F015C3109168
:1043D0001E0112FF09C08091510622E3289FC001EF
:1043E00011248F5C9C4F02C00E948C1E909310077A
:1043F00080930F0720900F0730901007211431048D
:1044000009F442C70091D906802F817000FF03C0D4
:104410001092D906EAC09091D8069F5F953009F0B6
:10442000892F8093D806E82EF12C32E13E9DF001D1
:104430003F9DF00D1124E258F94FF0930E07E093E1
:104440000D07D10150969C915097908BE2E18E9F81
:10445000C001112420E030E04D915D916D917D917E
:10446000F901E80FF91FE258F94F689412F8440F68
:10447000551F661F771F1694D1F7408351836283BF
:1044800073832C5F3F4F2C30310531F722E12E9D95
:10449000F0012F9DF00D11249F012258394FF10199
:1044A00084859585A685B78543E0880F991FAA1F47
:1044B000BB1F4A95D1F7F90184879587A687B787EF
:1044C000D1011C966D917D918D919C911F970E94B9
:1044D000D9396093DE067093DF068093E0069093EF
:1044E000E106F101268D378D40A151A10E9431399D
:1044F0009B01AC016093E2067093E3068093E406AF
:104500009093E50660E070E080EA9FE30E94313915
:104510006093E6067093E7068093E8069093E906B9
:104520001092DA061092DB061092DC061092DD067D
:1045300011FD02C003FF1FC06091F7067091F806DD
:104540008091F9069091FA066093EF067093F00659
:104550008093F1069093F2069B01AC010E94893B87
:10456000D10152966D937D938D939C935597077FC0
:104570000093D9060FC0F1016289738984899589F6
:104580000E94283C6093EF067093F0068093F1063A
:104590009093F206F2E1FE9DC001FF9D900D112463
:1045A0009C012258394F7901D90151961C92809172
:1045B000700181FF1AC0F101818985FF16C022A513
:1045C00033A544A555A560E070E080E89FE30E9414
:1045D0003139609303077093040780930507909324
:1045E0000607E1E0D7015196EC931092EB0610928A
:1045F000EC061092ED061092EE06D1015A962D911E
:104600003D914D915C915D9729833A834B835C8307
:1046100060E070E080E09FE30E9431394B015C0173
:10462000F101468C578C60A071A011FF4BC0F2E0E5
:10463000F093EA06D1015296CD90DD90ED90FC907A
:104640005597A70196010E94893B9B01AC01C301CC
:10465000B2010E9431384B015C0120E030E0A90139
:104660000E94273987FF1DC029813A814B815C81D7
:10467000CA01B9010E943238A30192010E94893B0C
:104680009B01AC01C701B6010E9431380E94283C51
:104690006093F7067093F8068093F9069093FA06F4
:1046A000A8C18092EB069092EC06A092ED06B09223
:1046B000EE061092F7061092F8061092F906109284
:1046C000FA0697C11092EA064092FB065092FC0649
:1046D0006092FD067092FE0612FF0CC01092F70663
:1046E0001092F8061092F9061092FA06C12CD12CFD
:1046F000760124C0E0913003EF5FE03109F4E0E09F
:10470000809151068E1759F0B2E3BE9FF00111243B
:10471000EF5CFC4FC288D388E488F58803C0C12CC5
:10472000D12C7601C701B6010E94283C6093F706A0
:104730007093F8068093F9069093FA06C1010E94DF
:10474000191E698B7A8B8B8B9C8B9B01AC010E9411
:10475000893B69877A878B879C87D10152962D91F7
:104760003D914D915C9155972D833E834F835887A2
:104770000E94273987FF6CC029853A854B855C8567
:104780006D817E818F8198850E943138A5019401C9
:104790000E94893B9B01AC01C301B2010E943138E8
:1047A0006093FB067093FC068093FD069093FE06D3
:1047B00020E030E0A9010E94273918163CF1B2E050
:1047C000B093EA0629813A814B815C81CA01B90123
:1047D0000E943238A30192010E94893B9B01AC01E7
:1047E0006D817E818F8198850E9431380E94283C9E
:1047F0006093F7067093F8068093F9069093FA0693
:104800008091D90688608093D906F3C0A7019601EC
:1048100069857A858B859C850E943138A501940134
:104820000E94893B6093FF06709300078093010705
:104830009093020729893A894B895C892093F30672
:104840003093F4064093F5065093F60633E0B6C075
:10485000A70196016D817E818F8198850E943138F4
:10486000A50194010E94893BA30192010E94323864
:1048700020E030E040E05FE30E94893B6D877E8767
:104880008F87988B20E030E0A9010E94493B1816E1
:104890000CF097C02D853E854F855889C301B20124
:1048A0000E94493B18160CF088C0A7019601698543
:1048B0007A858B859C850E943138A50194010E94E0
:1048C000893B9B01AC016093FF06709300078093C6
:1048D0000107909302076D857E858F8598890E94D8
:1048E000493B1816CCF589899A89AB89BC89809394
:1048F000F3069093F406A093F506B093F6062D8187
:104900003E814F81588569857A858B859C850E947B
:104910002739811104C091E09093EA066AC02D8185
:104920003E814F81588569857A858B859C850E945B
:104930003138A50194010E94893B9B01AC01C30160
:10494000B2010E9431386093FB067093FC0680939D
:10495000FD069093FE064DC02D853E854F855889F6
:104960002093FB063093FC064093FD065093FE0611
:104970002093FF06309300074093010750930207EE
:1049800029813A814B815C81CA01B9010E94323888
:104990002D853E854F8558890E94893BA701960148
:1049A0000E9432380E94283C6093F3067093F4060C
:1049B0008093F5069093F6061CC032E03093EA0629
:1049C00018C01092FB061092FC061092FD06109281
:1049D000FE068091F7069091F806A091F906B09135
:1049E000FA068093F3069093F406A093F506B0932D
:1049F000F606186010931E0180917D06482F50E046
:104A00005A8B498B87E0849FF001859FF00D11241C
:104A1000ED5AF94F8091D8068483A0910F07B09189
:104A20001007BCAFABAF5E96BC91BAA3EBADFCADCB
:104A3000F78DFBA3ABADBCAD9096BC91BCA3EBAD29
:104A4000FCADF1A1FDA32091E6063091E70640916F
:104A5000E8065091E9066AA17BA18B2F9F2F0E9447
:104A600031386EA77FA788AB99AB20E030E0A90171
:104A70000E94273987FF04C01EA61FA618AA19AADC
:104A80002091F3062E8B3091F4063F8B4091F50672
:104A9000488F5091F606598F8091FB068A8F90912E
:104AA000FC069B8FA091FD06AC8FB091FE06BD8FDA
:104AB000E091EA06ED8BF091FF06FEA3209100073E
:104AC0002FA33091010738A74091020749A75091C1
:104AD000EF0659838091F0068D839091F1069987B6
:104AE000A091F206AD87B091EB06BAA7E091EC0673
:104AF000EBA7F091ED06FCA72091EE062DA73091D3
:104B0000F7063BAB4091F8064CAB5091F9065DAB14
:104B10008091FA068EAB2EA13FA148A559A56A8DBA
:104B20007B8D8C8D9D8D0E942739811103C092E071
:104B30009AAB02C0A1E0AAAB3AA02BA00CA11DA188
:104B40008EE3C82E83ECD82E8EE2E82E89E3F82E71
:104B5000412C512C3201CE8EDF8EE8A2F9A23D8984
:104B6000313009F4EDC0ABADBCAD313008F479C0E3
:104B7000333009F019C15A962D913D914D915C91B8
:104B80005D97C701B6010E94893B4B015C012E89EC
:104B90003F89488D598D69817D8189859D850E94D8
:104BA00031389B01AC01C501B4010E94493B87FD2E
:104BB00031C02A8D3B8D4C8D5D8D6AA17BA18CA16E
:104BC0009DA10E9431389B01AC010E9432386B01DB
:104BD0007C0129813D8149855D856E897F89888D2C
:104BE000998D0E9432389B01AC01C701B6010E9429
:104BF00031396B017C01BE89B983EF89ED83F88D72
:104C0000F987298D2D873A8C2B8C0C8D1D8D31E0E9
:104C10003D8B47C120E030E040E05FE3C501B401D7
:104C20000E94893B9B01AC0169817D8189859D85BD
:104C30000E943138A70196010E94893B9B01AC017B
:104C4000632D722DC8010E943138362E272E8C011B
:104C5000A501940169817D8189859D850E943138F6
:104C60006AC05A962D913D914D915C915D97C70117
:104C7000B6010E94893B4B015C0120E030E040E03E
:104C80005FE30E94893B29813D8149855D850E94C2
:104C90003238A70196010E94893B9B01AC01632D2C
:104CA000722DC8010E943138362E272E8C01262FF6
:104CB000372FAC016A8D7B8D8C8D9D8D0E94493B79
:104CC00018168CF52A8D3B8D4C8D5D8D6AA17BA1CC
:104CD0008CA19DA10E9431389B01AC010E94323809
:104CE0006B017C0129813D8149855D856E897F89C4
:104CF000888D998D0E9432389B01AC01C701B601A5
:104D00000E9431396B017C01BE89B983EF89ED8343
:104D1000F88DF987298D2D873AA93D8B3A8C2B8CFC
:104D20000C8D1D8DBEC0A501940169817D81898591
:104D30009D850E94323869837D8389879D87B1C0B4
:104D40002E893F89488D598DC701B6010E94893B44
:104D50009B01AC01632D722DC8010E9431385B01AB
:104D60004C019B01AC016EA17FA188A599A50E9471
:104D7000493B18160CF092C02EA13FA148A559A599
:104D8000632D722DC8010E9431382E893F89488DCC
:104D9000598D0E9431396B017C013EA02FA008A5DE
:104DA00019A542E04D8B7DC05A962D913D914D91B4
:104DB0005C915D97C701B6010E94893B4B015C0184
:104DC00029813D8149855D850E94273987FF38C04B
:104DD00020E030E040E05FE3C501B4010E94893B80
:104DE0009B01AC0169817D8189859D850E94313857
:104DF000A70196010E94893B9B01AC01632D722D96
:104E0000C8010E9431386FAB78AF89AF9AAF2AA53D
:104E10003BA54CA55DA50E94493B18168CF4A50145
:104E2000940169817D8189859D850E9431386983DE
:104E30007D8389879D873FA828AC09AD1AAD31C015
:104E40002AA53BA54CA55DA5632D722DC8010E9426
:104E500031389B01AC010E9432386B017C01298101
:104E60003D8149855D856BA97CA98DA99EA90E947C
:104E700032389B01AC01C701B6010E9431396B0188
:104E80007C01BBA9B983ECA9ED83FDA9F9872EA903
:104E90002D873AA42BA40CA51DA503C03A2C2B2CBE
:104EA0008401A7019601C301B2010E9432382B018F
:104EB0003C012E8D3F8D48A159A10E94273987FFC3
:104EC00007C0A30192016E8D7F8D88A199A11BC09F
:104ED0002EA53FA548A959A9632D722DC8010E948E
:104EE000493B18161CF52EE333EC4EE259E36E8D68
:104EF0007F8D88A199A10E9432386E8F7F8F88A301
:104F000099A3A30192010E9431386B017C01232DEA
:104F1000322DA8016AA57BA58CA59DA50E942739E5
:104F200087FD1DCE3D893093EA0603C04D8940932D
:104F3000EA0689819D81A985BD858093EF069093BE
:104F4000F006A093F106B093F206E0910D07F09100
:104F50000E079189911104C080911E0183FF3FC00B
:104F6000ABADBCAD51968C915197807349F19E9633
:104F7000CD90DD90ED90FC90D1979923D1F02091C8
:104F8000030730910407409105075091060760918F
:104F9000EF067091F0068091F1069091F2060E9462
:104FA000893B9B01AC01C701B6010E94893B6B01A3
:104FB0007C01C701B6010E942419809307070AC02B
:104FC00010922701109228011092290110922A01B3
:104FD0001092070780911E01877F80931E0147E092
:104FE00029893A89429FF001439FF00D1124ED5A1F
:104FF000F94FFA87E9878091070786832091E206B7
:105000003091E3064091E4065091E506632D722D40
:10501000C8010E94893B69837A838B839C830E94A9
:1050200010396B017C016091DE067091DF06809182
:10503000E0069091E1060E9410394B015C01A70146
:1050400096010E9431380E94AA396D837E838F8336
:105050009887ED81FE81A985BA85ED93FC93EF2BAE
:1050600041F480911E0181FF04C0816080931E0184
:105070000BC12091DA063091DB064091DC0650919D
:10508000DD06C301B2010E9432382B013C012981A7
:105090003A814B815C81C501B4010E9431389B018A
:1050A000AC01C301B2010E9431394B015C0120EC1B
:1050B00031EE44E65EE40E94893B0E9410390E9472
:1050C000AA39603D37E073078105910560F4A7E0D8
:1050D00049895A89A49FF001A59FF00D1124ED5A2A
:1050E000F94F158253C0603ABFE07B0781059105F7
:1050F00060F447E029893A89429FF001439FF00D0F
:105100001124ED5AF94F51E011C06034AFE17A0734
:105110008105910568F447E029893A89429FF001A9
:10512000439FF00D1124ED5AF94F52E055830CC006
:1051300027E0A989BA892A9FF0012B9FF00D11243D
:10514000ED5AF94F33E03583A7E049895A89A49F86
:10515000F001A59FF00D1124ED5AF94F2581022E83
:1051600004C096958795779567950A94D2F74D81F7
:105170005E8102C0440F551F2A95E2F75183408398
:105180006115710551E08507910568F427E0A9894B
:10519000BA892A9FF0012B9FF00D1124ED5AF94F87
:1051A0007383628304C04FEF5FEF53834283809128
:1051B0000C0780937D068F5F863019F080930C0773
:1051C00002C010920C07E0910F07F0911007832D99
:1051D000922DD801868F978FA0A3B1A3C092DE062F
:1051E000D092DF06E092E006F092E10629813A8152
:1051F0004B815C81C701B6010E943138A501940141
:105200000E94893B6093DA067093DB068093DC068C
:105210009093DD062091EB063091EC064091ED066F
:105220005091EE06632D722DC8010E94273981111D
:10523000C0C820E030E0A901632D722DC8010E9492
:10524000493B90911E01181614F092FF04C0916022
:1052500090931E0119C01092100710920F079091A1
:10526000300380915106891709F4A3C881E0890FA2
:10527000803109F480E020912F03921302C08093C3
:105280002F038093300395C8EC960FB6F894DEBFD9
:105290000FBECDBFDF91CF911F910F91FF90EF9087
:1052A000DF90CF90BF90AF909F908F907F906F9046
:1052B0005F904F903F902F900895CF93DF93C091D0
:1052C0000F07D09110072097C9F08091D90681600F
:1052D0008093D9066091EF067091F0068091F106F7
:1052E0009091F2069B01AC010E94893B6A8B7B8BFB
:1052F0008C8B9D8B1092100710920F07DF91CF912E
:105300000895CF93DF930E948E1680E3E8EDF6E0D8
:10531000DF011D928A95E9F7CCE0D3E083E2FE013C
:1053200011928A95E9F71092100710920F071092C8
:10533000520610927D0681E080930C0710920B03B9
:105340000E945D1680910A038F878BB1837E9091B6
:105350000903892B8BB98BB18F7190910A03892B2B
:105360008BB9DF91CF9108958F929F92AF92BF92A8
:10537000CF92DF92EF92FF920F931F93CF93DF9321
:105380007C016B01DC01CC91D0E0FE01EF5EF84FB7
:1053900080818D3229F4EF012296818101E009C0DC
:1053A0008B3219F0CE5ED84F03C0EF012296818177
:1053B00000E0912CF0E010E020E030E0A9015E0177
:1053C000E0EDE80FEA30D0F4FF5FF93098F4911087
:1053D0001150A5E0B0E00E94F93CDC01CB01880F40
:1053E000991FAA1FBB1F9C01AD012E0F311D411D2E
:1053F000511D0AC0911008C01F5F06C0EE3F41F466
:10540000911006C0992493942196D5018C91D7CF01
:10541000FF2309F44FC0CA01B9010E94D9394B01D9
:105420005C0120E030E0A9010E942739882349F17E
:105430001F3F64F42AE037ED43E25CE3C501B401A9
:105440000E94893B4B015C011E5FF2CF1F3F59F464
:105450002DEC3CEC4CEC5DE3C501B4010E94893BB2
:105460004B015C010EC0112361F020E030E040E20E
:1054700051E4C501B4010E94893B4B015C0111500C
:10548000F2CF002351F0B7FAB094B7F8B094F60118
:1054900080829182A282B38206C0D6018D929D92B3
:1054A000AD92BC921397C151D740C150F701C08350
:1054B00081E001C080E0DF91CF911F910F91FF90BB
:1054C000EF90DF90CF90BF90AF909F908F90089516
:1054D0002F923F924F925F926F927F928F929F9204
:1054E000AF92BF92CF92DF92EF92FF920F931F93F2
:1054F000CF93DF93CDB7DEB7AC970FB6F894DEBF8E
:105500000FBECDBF90911B0191119FC28EA3FE01D2
:105510003D9689E0DF011D928A95E9F786E08D8B43
:105520003BE2832E31E0932E39965F0100E010E0DC
:10553000C12CD12C76014CE0342E5EA0452C512C90
:105540005D8E4C8E802F202F002321F0013021F022
:1055500090E103C094E001C098E0223019F4D50135
:105560009C9302C0F50130824C8C5D8C02C0559436
:1055700047948A95E2F740FE17C020E030E040EC07
:105580005FEBD40194966D917D918D919C9197974D
:105590000E94893B2B013C01A70196010E942739FB
:1055A00087FD02C0620173010F5F1F4FB4E08B0ED5
:1055B000911CEFEFAE1ABE0A0330110519F64090A8
:1055C000760150907701609078017090790124E025
:1055D000A22EBB24B39461E071E0CE0101960E943B
:1055E000E6202091090130910A0140910B01509170
:1055F0000C012E8F3F8F48A359A380917101482F32
:1056000050E058A74FA3CE0101964C01DE015696FB
:10561000BA8FA98F212C312C00E010E0A701960150
:1056200050582AA33BA34CA35DA32B8E8C8D9D8D3C
:10563000022C02C0959587950A94E2F780FFA6C0D8
:105640000F5F211034C08091010190910201A0915F
:105650000301B091040120910501309106014091B0
:10566000070150910801BC01CD01621B730B840B33
:10567000950B22E030E040E050E00E94D43C2093C3
:1056800001013093020140930301509304018827E4
:105690009927DC01821B930BA40BB50B80930501AA
:1056A00090930601A0930701B09308013CC04B8D75
:1056B0004130A9F58091010190910201A09103016F
:1056C000B091040189A79AA7ABA7BCA78091050157
:1056D00090910601A0910701B091080129A53AA572
:1056E0004BA55CA5280F391F4A1F5B1FCA01B901D2
:1056F00022E030E040E050E00E94D43C20930501DD
:105700003093060140930701509308012093010153
:1057100030930201409303015093040104C01E8E94
:105720001F8E18A219A28FA198A50B8C02C0959567
:1057300087950A94E2F780FF13C0BB2051F08AA13D
:105740009BA1ACA1BDA1F40180839183A283B3830B
:1057500019C0D401CD92DD92ED92FC92139712C044
:10576000BB2031F0F401C082D182E282F3820AC010
:105770002AA13BA14CA15DA1D4012D933D934D9352
:105780005C931397E98DFA8D8081182BFFEF2F1A08
:105790003F0A298D3A8D2F5F3F4F3A8F298F34E092
:1057A000830E911C43E02416310409F03ECF8E8D08
:1057B0009F8DA8A1B9A18093090190930A01A0939C
:1057C0000B01B0930C01602F70E080E090E00E942C
:1057D000D9390E94283C9B01AC0110932001C301E0
:1057E000B2010E94893B6D877E878F87988BBE01AF
:1057F000635F7F4FCE0101960E94803394E09093C7
:105800001E010E94BB210E940C19BB2029F10E949D
:105810002802788D70956E899F89692B6095FE01AD
:10582000769620E030E090E04191412371F0AC01A8
:10583000022E02C0559547950A94E2F740FF05C035
:10584000223011F4172301C016232F5F3F4F23305E
:10585000310551F7109320010E94BB218091080768
:10586000847339F11091080714FF03C086E00E9489
:10587000CD2015FF03C087E00E94CD20B11007C0E6
:105880000E9428024EA0842139F088E003C012FF54
:1058900003C089E00E94CD2080910907882329F068
:1058A0000E943A200E943315D0C084E00E94D32089
:1058B00004C0812F8C7109F0A8CF0E94812900912A
:1058C0007A0110917B010115110549F08FE99FE0E4
:1058D0000197F1F700C0000001501109F4CF91E0E9
:1058E000B926C9F020E030E040EA50E460917C0144
:1058F00070917D0180917E0190917F010E94893B92
:105900006B017C01409072015090730160907401B2
:105910007090750110C0C0907C01D0907D01E09026
:105920007E01F0907F014090760150907701609069
:10593000780170907901AA94A1104DCE81E0E82EF3
:1059400081E0F82E92E0892E912CA12CB12C8C8D27
:105950009D8D002E02C0959587950A94E2F780FFF1
:1059600069C0011132C08091010190910201A091A2
:105970000301B09104014090050150900601609030
:10598000070170900801BC01CD01641975098609F1
:105990009709A50194010E94D43C20930101309302
:1059A0000201409303015093040188279927DC01E9
:1059B000821B930BA40BB50B8093050190930601FA
:1059C000A0930701B093080135C0013069F54091FB
:1059D00001015091020160910301709104018091D5
:1059E000050190910601A0910701B09108012A01DB
:1059F0003B01480E591E6A1E7B1EC301B201A50160
:105A000094010E94D43C2093010130930201409301
:105A10000301509304012093050130930601409344
:105A200007015093080106C0D7011D921D921D92D7
:105A30001C9213970F5F1F4FB4E0EB0EF11C033065
:105A4000110509F084CF10921E01AC960FB6F894A0
:105A5000DEBF0FBECDBFDF91CF911F910F91FF90A1
:105A6000EF90DF90CF90BF90AF909F908F907F90FE
:105A70006F905F904F903F902F900895CF93DF935A
:105A8000CDB7DEB769970FB6F894DEBF0FBECDBFB6
:105A90008091C00082608093C0001092C50080E1B8
:105AA0008093C4008091C10088698093C10080E028
:105AB00090E00E94F1018A3009F03EC545E550E0D2
:105AC00061E070E08BE291E00E944302892B09F4CF
:105AD00033C58AB18C618AB9209A8AB1806E8AB93D
